:100000007DC7000098C7000096C700000C944F34CD
:1000100092C7000090C700008EC700008CC7000088
:100020008AC7000088C700000C9403310C94EB31A0
:100030000C949F1F80C700007EC700007CC7000093
:100040007AC7000078C7000076C7000074C70000B8
:1000500072C700000C94DF306EC700006CC7000050
:100060006AC7000068C7000066C7000064C70000D8
:1000700062C7000060C700005EC700005CC70000E8
:100080005AC7000058C7000056C7000054C70000F8
:1000900052C7000050C700004EC700004CC7000008
:1000A0004AC7000048C7000046C700000501098094
:1000B000A101850319012AB700150126B700950192
:1000C00075108100C0050C0901A101850419012AE0
:1000D000A002150126A002950175108100C00660DE
:1000E000FF0961A1010962150026FF00952075082E
:1000F00081020963150026FF00952075089102C052
:1001000005010906A101050719E029E715002501E8
:10011000950875018102950175088101050719008F
:1001200029FF150026FF00950675088100050819AE
:1001300001290515002501950575019102950175A7
:10014000039101C009025B00030100A0FA09040049
:1001500000010301010009211101000122440007EF
:1001600005810308000109040100020300000009E1
:10017000211101000122220007058203200001074E
:100180000503032000010904020001030000000927
:100190002111010001223200070584032000011211
:1001A000010002000000083C3A01000001010200C9
:1001B000010A034B006C006F00720000002A0370FC
:1001C000006F0073006900740072006F006E005FC2
:1001D0000065006C0065006300740072006F006EC3
:1001E00000690063007300000004030904000014A8
:1001F000001A000800150017002B00040016000765
:100200000009000A004C001D001B00060019000533
:10021000000000E00001002C00E200A80000001334
:100220000012000C0018001C00340033000F000EF8
:10023000000D000B00E500380037003600100011FB
:100240000000002A0001002800E300AE00000014B6
:10025000001A000800150017001E00040016000711
:100260000009000A004C001D001B000600190005D3
:10027000000000E00001002C00E200A800000013D4
:100280000012000C0018001C00340033000F000E98
:10029000000D000B00E5003800370036001000119B
:1002A0000000002A0001002800E300AE0000001456
:1002B000001A000800150017001F000400160007B0
:1002C0000009000A004C001D001B00060019000573
:1002D000000000E00001002C00E200A80000001374
:1002E0000012000C0018001C00340033000F000E38
:1002F000000D000B00E5003800370036001000113B
:100300000000002A0001002800E300AE00000014F5
:10031000001A00080015001700200004001600074E
:100320000009000A004C001D001B00060019000512
:10033000000000E00001002C00E200A80000001313
:100340000012000C0018001C00340033000F000ED7
:10035000000D000B00E500380037003600100011DA
:100360000000002A0001002800E300AE00A900AA56
:1003700000A900AA00A900AA00A900AA00A900AA31
:1003800000A900AA00A900AA00A900AA008F900055
:10039000B1B200E1E1E1E1E1E1E1E1E1E1E10093BC
:1003A0009400E1E100919200B7B800B5B600A0A1B9
:1003B000A2A3A4E10097980095960080818283848F
:1003C000E100E1E1E1E1E1E1E1E1E1E1E1E1E100DF
:1003D000C0C0C0C0C0C0C0C0C0C0C0C0C0C0C0C01D
:1003E000C0C0C0C0C000000000000000000000004D
:1003F00000000000000000000000000000000000FD
:10040000000000000000F0F0F0F0FFFFFFFFFFFF32
:10041000FFFFFFFFFFFFFFFFFFFFFFFFFFFFFFFFEC
:10042000FFFFFFFFFFFFFFFFFFFFFFFFFFFFFFFFDC
:10043000FFFFFFFFFFFFFFFFFFFFFFFFFFFFFFFFCC
:10044000FFFFF0F0F0F000000000000000000000EE
:10045000000000000000000000000000000000009C
:10046000000000000000000000000000000000008C
:10047000000000000000000000000000000000007C
:10048000000000000000FFFFFFFFFFFFFFFFFFFF76
:10049000FFFFFFFFFFFFFFFFFFFFFFFFFFFFFFFF6C
:1004A000FFFFFFFFFFFFFFFFFFFFFFFFFFFFFFFF5C
:1004B000FFFFFFFFFFFFFFFFFFFFFFFFFFFFFFFF4C
:1004C000FFFFFFFFFFFF0000000000000000000032
:1004D000000000000000000000000000000000001C
:1004E000000000000000000000000000000000000C
:1004F0000000F0F0F0F0FFFFFFFFFFFFFFFFFFFF46
:10050000FFFFFFFFFFFFFFFFFFFFFFFFFFFF0F0FDB
:100510000F0F00000000000000000F0F0F0FFFFF83
:10052000FFFFFFFFFFFFFFFFFFFFFFFFFFFF0F0FBB
:100530000F0F00000000000000000F0F0F0FFFFF63
:10054000FFFFFFFFFFFFFFFFFFFFFFFFFFFFFFFFBB
:10055000FFFFFFFFFFFFF0F0F0F0000000000000E1
:10056000000000000000000000000000000000008B
:100570000000FFFFFFFFFFFFFFFFFFFFFFFFFFFF89
:10058000FFFFFFFFFFFFFFFFFFFFFFFFFFFFF0F099
:10059000F0F00000000000000000F0F0F0F0FFFFBD
:1005A000FFFFFFFFFFFFFFFFFFFFFFFFFFFFF0F079
:1005B000F0F00000000000000000F0F0F0F0FFFF9D
:1005C000FFFFFFFFFFFFFFFFFFFFFFFFFFFFFFFF3B
:1005D000FFFFFFFFFFFFFFFFFFFF00000000000025
:1005E000000000000000000000000000000000000B
:1005F0000000FFFFFFFFFFFFFFFFFFFFFFFFFFFF09
:10060000FFFFFFFFFFFFFFFFFFFFFFFFFFFFFFFFFA
:10061000FFFFFFFFFFFFFFFFFFFFFFFFFFFF0F0FCA
:100620000F0F0F0F0F0F0F0F0F0F0F0F0F0FFFFFFA
:10063000FFFFFFFFFFFFFFFFFFFFFFFFFFFFFFFFCA
:10064000FFFFFFFFFFFFFFFFFFFFFFFFFFFFFFFFBA
:10065000FFFFFFFFFFFFFFFFFFFF000000000000A4
:10066000000000000000000000000000000000008A
:1006700000000F0F0F0FFFFFFFFFFFFFFFFFFFFF48
:10068000FFFFFFFFFFFFFFFFFFFFFFFFFFFFFFFF7A
:10069000FFFFFFFFFFFFFFFFFFFF0F0F0F0F000028
:1006A0000000F0F0F0F0F0F0F0F0000000000F0FAC
:1006B0000F0FFFFFFFFFFFFFFFFFFFFFFFFFFFFF2A
:1006C000FFFFFFFFFFFFFFFFFFFFFFFFFFFFFFFF3A
:1006D000FFFFFFFFFFFF0F0F0F0F000000000000E4
:1006E000000000000000000000000000000000000A
:1006F00000000000000000000000000000000000FA
:10070000000000000000FFFFFFFFFFFFFFFFFFFFF3
:10071000FFFFFFFFFFFF0F0F0F0F00000000F0F0C3
:10072000F0F0FFFFFFFFFFFFFFFFF0F0F0F0000031
:1007300000000F0F0F0FFFFFFFFFFFFFFFFFFFFF87
:10074000FFFFFFFFFFFF00000000000000000000AF
:100750000000000000000000000000000000000099
:100760000000000000000000000000000000000089
:100770000000000000000000000000000000000079
:10078000000000000000FFFFFFFFFFFFFFFFFFFF73
:10079000FFFFFFFFFFFFF0F0F0F0F0F0F0F0FFFFE1
:1007A000FFFFFFFFFFFFFFFFFFFFFFFFFFFFF0F077
:1007B000F0F0F0F0F0F0FFFFFFFFFFFFFFFFFFFFA3
:1007C000FFFFFFFFFFFF000000000000000000002F
:1007D0000000000000000000000000000000000019
:1007E00000000000000000AE00AF000000000000AC
:1007F0003E5B4F5B3E003E6B4F6B3E001C3E7C3EC3
:100800001C00183C7E3C18001C577D571C001C5EC9
:100810007F5E1C0000183C180000FFE7C3E7FF00E4
:10082000001824180000FFE7DBE7FF0030483A0615
:100830000E00262979292600407F05050700407F04
:1008400005253F005A3CE73C5A007F3E1C1C08002F
:10085000081C1C3E7F0014227F2214005F5F005F93
:100860005F0006097F017F00006689956A0060606D
:100870006060600094B6FFB69400080C7E0C08001F
:1008800010307E30100008083E1C0800081C3E088E
:1008900008001E10101010000C1E0C1E0C0030382A
:1008A0003E383000060E3E0E06000000000000003C
:1008B00000005F000000000700070000143E143E27
:1008C00014002E2A7F2A3A002012082402003749F9
:1008D00049375000000807030000001C22410000B7
:1008E0000041221C00002A1C7F1C2A0008083E0828
:1008F00008000080703000000808080808000000A8
:10090000606000002010080402007F5149457F000C
:100910000804027F0000714949494F00414149499B
:1009200077000F1010107F004F49494971007E4930
:100930004949700001017109070077494949770069
:10094000074949493F0000001400000000403400FE
:100950000000000814224100141414141400004173
:1009600022140800010159090F007F415D594F0011
:100970007F0909097F007F49494976007F4141414C
:1009800041007F4141417E007F49494949007F093B
:10099000090909007F4141497B007F0808087F0061
:1009A00000007F000000704040407F007F08080882
:1009B00077007F40404040007F011F017F007F049F
:1009C00008107F007F4141417F007F0909090F0026
:1009D0007F4171417F007F0909196F0047494949EB
:1009E000790001017F0101007F4040407F001F200E
:1009F00040201F007F407F407F0077080808770075
:100A00004F4848487F00615149454300007F4141BC
:100A100000000204081020000041417F0000040291
:100A20000102040040404040400000000708000070
:100A3000605454547C007F44444478007C444444D3
:100A40004400784444447F007C5454545C00087F44
:100A50000909090038A4A4A4FC007F040404780058
:100A600000007D0000007040407D00007F08080805
:100A7000760000007F4000007C047C047C007C0445
:100A8000040478007C4444447C00FC242424380082
:100A900038242424FC007C04040404005C545454D2
:100AA000740004047F0404007C4040407C001C204F
:100AB00040201C007C407C407C006C1010106C00BE
:100AC000BCA0A0A0FC004464544C44000008364183
:100AD000000000007700000000413608000002011D
:100AE000020402003C2623263C000000E0F0F0F067
:100AF000F0FEFF9F0F0F9FFFFFFFFF9F0F0F9FFF56
:100B0000FEF0F0F0F0E00000FF000000000000C088
:100B1000300C0300000000FF000000000000000097
:100B2000E0100804020202010101010101020202B7
:100B3000040810E000000000FF01010101010101B3
:100B4000010101FF7F515555457F415F5F5F7F0088
:100B50007F417B77417F415F5F5F7F007F415D5DCC
:100B60005D7F415F5F5F7F00C0E0F0F0F0E0E6F79F
:100B7000F3F060007C7C7C7C7C007C7C7C7C7C005A
:100B8000F81CDE1FFFFFFF1FDE1CF800C0E2B4F8F8
:100B9000F8F8F8F8B4E2C00000000000000000001F
:100BA000000000000000000000000000070F0F0F11
:100BB0000FFFFFFFFF9F87E1F9F9E1879FFFFFFF2D
:100BC000FF0F0F0F0F070000FF0000C0300C33C0F5
:100BD00000000000000000FF000000000000003FD7
:100BE000C000000000000000000000000000000045
:100BF000000000C03F000000FF080808080808388F
:100C0000C808080F7E00007F00007800007E00000A
:100C10002424121224244848242412120000000024
:100C200000000000000000000F1F3F7F7F3F3F7F5C
:100C30007F3810001F1F1F1F1F001F1F1F1F1F00B7
:100C40000F1421404541454021140F007D7D7D7DDD
:100C50007D7D7D7D7D7D7D00000000000000000029
:100C60000000000000000000000008080808080854
:100C70000000000000000000000000000000000074
:100C800000000000000000003F0C03000000000016
:100C9000030C30000000003F2020202020202020D6
:100CA0000102040810101020202020202010101015
:100CB00008040201000000003F00000000000000E6
:100CC00000030C30400000400000400000400000E5
:100CD0001C3E3E3E1C003E1C1C0808003E3E3E3EA4
:100CE0003E000000000000000000000000000000C6
:100CF00000000000000000000000000000000000F4
:100D000000000000000000000000000000000000E3
:100D100000000000000000000000000000000000D3
:100D200000000000000000000000000101010101BE
:100D30000101010102020202020202020203030394
:100D40000303030303040404040404040505050564
:100D50000506060606060707070707080808080924
:100D60000909090A0A0A0B0B0B0C0C0C0D0D0D0ED0
:100D70000E0E0F0F0F101011111112121313141465
:100D8000151516161717181819191A1A1B1B1C1DDA
:100D90001D1E1E1F20202122222324242526262733
:100DA0002829292A2B2C2D2D2E2F30313232333465
:100DB00035363738393A3B3C3D3E3F40414243446B
:100DC00045464748494A4C4D4E4F5051535455564D
:100DD00058595A5B5D5E5F616264656668696B6CF9
:100DE0006D6F7072737577787A7B7D7E8082838574
:100DF00087888A8C8E8F91939596989A9C9EA0A2B4
:100E0000A3A5A7A9ABADAFB1B3B5B7BABCBEC0C2BD
:100E1000C4C6C9CBCDCFD1D4D6D8DBDDDFE2E4E781
:100E2000E9EBEEF0F3F5F8FAFDFF00DA1281FFD9F5
:100E3000F1DB20A4A62EAF00A0C0D30000A1C8D330
:100E40000000AED580A83F408D14200000000000B7
:100E50000000000000000000000000000000000092
:100E60000000000000000000000000000000000082
:100E70007E0F00D4FFFFFFC70000007800000000D5
:100E8000000000002A2B28000000000000000000E5
:100E90000000000000000029000000002C1E34208B
:100EA000212224342627252E362D3738271E1F20B1
:100EB0002122232425263333362E37381F040506F6
:100EC0000708090A0B0C0D0E0F101112131415163A
:100ED0001718191A1B1C1D2F3130232D3504050638
:100EE0000708090A0B0C0D0E0F101112131415161A
:100EF0001718191A1B1C1D2F3130354C11241FBE19
:100F0000CFEFDAE0DEBFCDBF12E0A0E0B1E0E0EF6E
:100F1000FDE602C005900D92A43EB107D9F729E085
:100F2000A4EEB2E001C01D92AA33B207E1F70E941D
:100F30006F2B0C947F3664C88093F30808958093D8
:100F4000F408089521E001C0220F8A95EAF7809104
:100F5000F408822BF4CF21E001C0220F8A95EAF732
:100F6000822F80959091F4088923E9CFCF93C1E037
:100F700061FDC4E060FDCC0F62FDC29593E0769503
:100F800067959A95E1F79B01220F331F260F371FB4
:100F9000420F531FFA0140E050E090E06191DF0101
:100FA0009C01042E02C0369527950A94E2F72695F7
:100FB000220B26272C2326272E934F5F5F4F43308B
:100FC000510561F7CF910895A82FA77023E096955A
:100FD00087952A95E1F79C01220F331F820F931FFB
:100FE000680F791FFB0140E050E080E0219130E084
:100FF0000A2E02C0369527950A94E2F72170042E36
:1010000001C0220F0A94EAF7822B4F5F5F4F4330F3
:10101000510561F70895282F862F983068F42630FF
:1010200050F4622F70E026E0929F600D711D112434
:101030004CED58E09BCF08959C5F9230E0F7622F13
:1010400070E049ED58E0F6CF292F983058F48630FB
:1010500080F490E06CED78E036E0239F800D911DE8
:101060001124B2CF2C5F223020F469ED78E090E0BB
:10107000F8CF80E008959091F40821E030E0F90184
:1010800001C0EE0F8A95EAF7D90101C0AA0F6A954F
:10109000EAF7EA2B01C0220F4A95EAF7892F8E233F
:1010A000E81303C0892F822B4ACF2095822F8923F2
:1010B000FBCFE091FA089091F908E91302C080E0B3
:1010C00008959F0157E0E59FF0011124E550F74F87
:1010D0005181561306C05081581303C055815413D3
:1010E00005C02F5F3F4FF901E770E7CF81E008951A
:1010F0008091FA082091F908281301C008950196FB
:101100008770FACF9091F508809589238093F50830
:10111000282F277061F4891751F09091F70892FFFA
:1011200006C086958695869516DF1092F508089577
:101130008095982F8091F00889238093F008089576
:10114000803E9105D1F1C8F48133910509F481C045
:1011500048F48932910509F471C08A32910509F485
:101160007FC0089589339105E1F082389105C9F077
:101170008533910509F45DC00895843E9105D1F150
:1011800048F4823E910531F1833E910541F181EEB3
:1011900090E00895863E9105C1F1873E9105F1F1F9
:1011A00008952091F608237009F064C02091F70893
:1011B00023FF14C089E290E008952091F60820FDF5
:1011C00045C03091F70830FF09C024FD24C083EEEC
:1011D00090E008952091F60822FDF7CF0895209120
:1011E000F60822FD44C03091F70830FD43C024FFCB
:1011F000F5CF11C02091F70821FFF0CF8091F608BC
:1012000084FD09C087EE90E008952091F60823FF41
:10121000E5CF24FFF7CF80E090E008952091F60815
:1012200023FD2BC03091F70831FFE1CF84EE90E031
:1012300008952091F60825FFD1CFBCCF2091F60864
:1012400025FD1EC02091F70823FFC8CF89E390E059
:1012500008952091F60826FFC1CF8AE290E0089514
:101260002091F60826FFBACF81E390E0089582EE40
:1012700090E0089580EE90E0089586EE90E0089565
:1012800085E390E008959091F60892FF10C041E048
:10129000282F2471243009F040E031E0282F2871F4
:1012A000283009F030E0431711F02CE0822793FF3B
:1012B00010C041E0282F2471243109F040E031E0D2
:1012C000282F2871283109F030E0431711F02CE065
:1012D00082273091F70830FF10C051E0282F21718C
:1012E000213009F050E041E0282F2871283009F022
:1012F00040E0541711F029E0822731FF10C041E08F
:10130000282F2171213109F040E031E0282F287188
:10131000283109F030E0431711F029E0822794FDCD
:10132000877E08950F931F93CF93DF9309DFEC011E
:10133000D23508F04DC0D03508F0C3C0C03ED1054D
:1013400030F5CD3CD10508F09AC0C83AD10578F403
:10135000C53AD10508F090C0C130D10599F1CE0150
:101360000497813A910570F1C0E0D0E02BC0CE0126
:10137000885A91094B97C0F7C85AD0E0CC0FDD1FAF
:10138000C858DD4F0990D881C02DD4641BC0D0341B
:1013900090F4D03208F0A8C0C83ED10598F0CE0134
:1013A00091509F3108F78D2F6EDF082F8C2F90E022
:1013B000C7DE902B54C08C2F90E0C2DEDF70C82FA8
:1013C000D92BD06ACE01DF91CF911F910F91089553
:1013D000C03882E5D807B8F5C03682E5D80708F0EE
:1013E00056C0C03482E5D807C8F4C03282E5D807B9
:1013F00008F047C08C2F8695869520E2829FC00119
:101400001124C37021E030E002C0220F331FCA95BF
:10141000E2F7E901C82BD92BDD68D4CF8C2F869554
:101420008695877020E2829FC0011124C37021E05D
:1014300030E002C0220F331FCA95E2F7E901C82B42
:10144000D92BDC68BFCFC03C82E5D80750F48C2F85
:101450008F71C03AD24580F5982F84EF906AEC01E5
:10146000B1CFCE01805C9245809708F07DCFDC2F14
:10147000DF71C0EFD06AA6CFA497D064A3CFD065A8
:10148000A1CF8C2F8F71D82FC1EFD06A9BCF8C2F1B
:1014900086958695877020E2829FC0011124C370D3
:1014A00021E030E002C0220F331FCA95E2F7E901C4
:1014B000C82BD92BDA6886CFE6DEC0E0D82FD06201
:1014C00081CF8C2F8F71DFDE93E0CC0FDD1F9A95DB
:1014D000E1F7DF70282F84FF04C090E1899F90011D
:1014E0001124C22FD0696ECF8D2F8F71CCDE082FC3
:1014F0008C2F90E025DE902BEC01E1CF80E0089569
:10150000F894E82FE295EF70F0E041A18F7021E0B0
:1015100001C0220F8A95EAF7922F9095942391A308
:1015200092A1822F892B82A37894089581E08093E1
:1015300064080895CF92DF92EF92FF921F93CF93AA
:10154000DF93462F172FE82FF0E0E65DF24F711181
:101550000CC0E4918E2F7E2F6E2FDF91CF911F91C3
:10156000FF90EF90DF90CF900895F491EF2F86E0F9
:10157000689FE00111242FEF30E0CE01B9010E94F5
:101580005A35DB01CA01880F991F65E56A9FA001E2
:101590006B9F500D1124841B482F440F480FC90125
:1015A000811B9109F89F7001F99FF00C11248F2D78
:1015B000149FB0011124672F70E06901C61AD70A81
:1015C000B601F69F6001F79FD00C1124A330B1053E
:1015D00049F1B901641B7109AB01149FB001159F5A
:1015E000700D1124672F70E0261B370BF29FA001AE
:1015F000F39F500D1124752FCC3FD34050F4A130F0
:10160000B105A1F0129709F0A7CFEF2D852F7F2FFD
:10161000A3CFA430B10569F0169709F49DCF7F2DB3
:101620008D2D9ACF7D2DEF2D8F2F96CF7F2FED2DE6
:1016300093CFE52F7F2DF8CF982F8091C808811583
:1016400029F081E0953108F080E0089581E09A3238
:10165000FACF282F269F020E20E0211D1124822F71
:1016600008959C0180E090E0269F020E811D369F28
:10167000800D911D1124830F911D0895AC018230BE
:10168000910508F408959FEF413E8EE1580740F41C
:101690009A0195E0369527959A95E1F7922F985FF4
:1016A00061E0262F290F3327331F35952795822F89
:1016B000229FF001239FF00DF00D11244E175F07BC
:1016C00038F4922F9150961760F7862F8150089525
:1016D0002F3FE9F3622F6F5FF6CF982FE82F96FD2B
:1016E000E0958E2F8F7096FD8F5FE695E695E695D7
:1016F000E670F0E0EA55FE4F2181289F202D812DD4
:10170000112422952F708295807F282B8081820F53
:1017100097FD819580580895FC019B01009719F46D
:10172000832F80780895AC0197FF04C04427552784
:10173000481B590BB901640F751F37FD10C0241BDE
:10174000350BA0E23A9F902D2A9F802D91291124DC
:101750000E94B13580E2861BF7FD81950895CB018B
:1017600060E2969F902D869F802D91291124421B27
:10177000530BBA010E94B13580E6EDCF1F93CF9392
:10178000DF93EB01182F822F8695A7DF805887FD06
:101790008195612F880F5DDFBE01DF91CF911F9191
:1017A00008950F931F93CF93DF93162FD72F082FF2
:1017B000C22FE42FF0E0EE0FFF1FE252FE4F64EE67
:1017C000808147DF4D2F50E0282F30E0245E3F4FCF
:1017D0006C2F70E0C9018C1B91091AF4CB01821B9C
:1017E000930B23E0880F991F2A95E1F7481B590BAB
:1017F000CA0157FD80E06D2F2CDF612F782F802FDD
:10180000DF91CF911F910F9108950F931F93CF9365
:10181000DF93162F072FD82FC22FE42FF0E0EE0F03
:10182000FF1FE252FE4F64EE808113DF4D2F50E028
:10183000282F30E0245E3F4F6C2F70E0C9018C1BD5
:1018400091091AF4CB01821B930B23E0880F991F97
:101850002A95E1F7481B590BCA0157FD80E06D2F0F
:10186000F8DE612F702FDF91CF911F910F910895B6
:101870000F931F93CF93DF93D62FC72F182FC90134
:10188000272F201B022FBA0147DF982F990F990F9E
:10189000891B6C2F800FDDDE6D2F782F812FDF915C
:1018A000CF911F910F9108950F931F93CF93DF93C3
:1018B000D62F172FC82FC9012C2F201B022FBA019A
:1018C0002BDF982F990F990F891B6C2F800FC1DE8A
:1018D0006D2F712FDF91CF911F910F910895EF928E
:1018E0000F931F93CF93DF93D62FC72F182FC901C4
:1018F0000E19070FBA0110DF6C2F081B802FA9DE0D
:101900006D2F782F812FDF91CF911F910F91EF9045
:101910000895EF920F931F93CF93DF93D62F172F36
:10192000C82FC9010E190C0FBA01F6DE6C2F081B67
:10193000802F8FDE6D2F712FDF91CF911F910F912F
:10194000EF900895622F0895E42FF0E0EE0FFF1F4F
:10195000E252FE4F6081621B0895E42FF0E0EE0F2B
:10196000FF1FE255FE4F61A9621B08950F93CF93AD
:10197000DF93C72FD82FC901BA01CEDE800F682FA1
:101980007C2F8D2FDF91CF910F9108951F93CF93CF
:10199000DF93EB01182F822F86959FDE805887FDFD
:1019A00081956CE0880F55DE6C2F680F7D2F812F9D
:1019B000DF91CF911F9108950F931F93CF93DF93E2
:1019C000EB01182F042F822F88DEE02FF0E0EE0FBE
:1019D000FF1FE252FE4F90819058890F87FD81953D
:1019E0006CE0880F36DE6C2F680F7D2F812FDF9122
:1019F000CF911F910F9108951F93CF93DF93EB0128
:101A0000182FE42FF0E0EE0FFF1FE252FE4F80810F
:101A1000821B87FD819568E11CDE6C2F680F7D2F8E
:101A2000812FDF91CF911F910895CF93DF93EB0129
:101A30009A0131112FEF682F822F80950ADEBE01A7
:101A4000DF91CF9108951F93CF93DF93EB01182F70
:101A5000CA0191118FEF60E48095FBDD6C2F680F58
:101A60007D2F812FDF91CF911F910895EF92FF92EB
:101A70000F93972F093420F4B701601B710971117E
:101A80006FEF485F5F4F4131510538F0A901485F62
:101A90005F4F4131510508F06FEF6095482F460FB9
:101AA00008F44FEF842F37FF02C02D5F3F4F35956D
:101AB0002795359527956091A708620F792F0F918B
:101AC000FF90EF900895EF92FF920F939701201BE4
:101AD0003109A90151114FEF342F3095282F230FD1
:101AE00008F42FEF822F640F0F91FF90EF9008956D
:101AF000EF92FF920F939701201B310931112FEFC5
:101B00002095382F320F08F43FEF832F0F91FF906D
:101B1000EF9008959091D903982B9093D90308954D
:101B20003091C808311104C0853191050CF04597FA
:101B300073C30F931F93CF93DF93C82FD0E0FE01A1
:101B4000EE5CFD4F808190910F01892309F43CC028
:101B50001091A8080091A9084091A708E42FF0E08F
:101B600060910C0170910D0185E098E0689F9001F3
:101B7000699F300D789F300D1124275E394C2093DA
:101B80000C0130930D01CF018C549F4F68E671E03A
:101B90000E94B1358E1B9F0B0AF40396959587958D
:101BA00095958795230F30E0B901660F771F260FB3
:101BB000371F839F400D1124642F712F802FBADCB3
:101BC000472F282FCE01ACDFDF91CF911F910F91CE
:101BD0000895FF920F931F93CF93DF93182F062F33
:101BE000F42EC0E0D0E02F2D402F612FCE0198DFE2
:101BF0002196CA32D105B9F7CDB7DEB7E5E00C942E
:101C0000973599E0899F802D1124982F975F9B32FB
:101C100008F09AE22091C808211104C0853128F407
:101C200085E10895963108F095E108956F927F92CD
:101C30008F929F92AF92BF92CF92DF92EF920F93CB
:101C40001F93CF93DF933C0180910E01DADFC82F01
:101C5000192F6091AA0866958091D5039091D603BB
:101C600000DDE82ED0E0CE01880F991F82559E4FEF
:101C70006C01812F1C1709F078F4DEDCDF91CF9125
:101C80001F910F91EF90DF90CF90BF90AF909F90FA
:101C90008F907F906F900895FE01EE5CFD4F8081E4
:101CA00090910F01892351F1F60180A9282F205727
:101CB000330B590181A9282F2052330B4901AA9CCB
:101CC0009001AB9C300D300D1124889CC001899C83
:101CD000900D900D1124820F931FD0DC082F60917E
:101CE000A7087091A8088091A9089401A501F301A3
:101CF000099520DC472F282FCE0112DF82E0C80E85
:101D0000D11C2196B6CFA0E0B0E0E9E8FEE00C944B
:101D100078356C0180910E0174DFC82F192F609106
:101D2000AA0866958091D5039091D6039ADC082F76
:101D3000D0E0CE01880F991F82559E4F7C01812FE4
:101D40001C1709F030F478DCCDB7DEB7E8E00C946E
:101D50009435FE01EE5CFD4F808190910F01892347
:101D6000A1F0F70121A92052330B40A94057550B90
:101D70006091A7087091A8088091A908F6010995BB
:101D8000D9DB472F282FCE01CBDE82E0E80EF11CF5
:101D90002196D5CFEF92FF920F931F93CF93DF93AE
:101DA0007C0180910E012DDFC82F192F6091AA08A8
:101DB0006695669521E0620F08F46FEF8091D50378
:101DC0009091D6034EDC082FD0E0812FC11730F060
:101DD00033DCCDB7DEB7E6E00C949635FE01EE5C61
:101DE000FD4F808190910F01892379F06091A708C0
:101DF0007091A8088091A908202F4C2FF701099510
:101E000099DB472F282FCE018BDE2196DECFAF92B4
:101E1000BF92DF92EF92FF920F931F93CF93DF93C6
:101E20005C0180910E01EDDEC82FD92E2091AA0809
:101E300031E0230F08F42FEF30E040E050E0CA011A
:101E40006FEF7FEF0E94C4358901D0E0F22EE12EC2
:101E50002C2F8D2DCD1558F0EFDBDF91CF911F91F9
:101E60000F91FF90EF90DF90BF90AF900895FE012B
:101E7000EE5CFD4F808190910F018923F9F0409134
:101E8000DA034150542F550F550B47FF19C08F2DC2
:101E90009E2D6091AA0821E0620F08F46FEFE1DB4C
:101EA000AC016091A7087091A8088091A908F5017C
:101EB000099540DB472F282FCE0132DE2196C8CF6F
:101EC000FA01E652FC4F818982130AC0FA01EE0F33
:101ED000FF1FE652FC4F818D928D80179107C8F24B
:101EE00041505109D2CFAAE0B0E0E9E7FFE00C94FD
:101EF0006E35382E6D837E8380910E0182DE99834C
:101F00009091DA039A8390E08F831886880F991F47
:101F100082559E4F6C013B821C8289819F8198175C
:101F200028F08ADB2A96E2E10C948A35EF81F88565
:101F3000EE5CFD4F808190910F018923D1F01091CB
:101F4000A7082090A8088B819C8185529C4F3C015A
:101F5000432C512C8A814816A8F06091A908852D40
:101F600078DB612F722DE6DA472F282F8F81988535
:101F7000D7DD8F81988501968F83988782E0C80E80
:101F8000D11CCBCFF30181913F01F601A0A8A81A83
:101F9000BB0881A8F3018781881A9908AA9C90013F
:101FA000AB9C300D300D1124889CC001899C900D94
:101FB000900D1124820F931F61DB082F6091AA08F6
:101FC00021E0620F08F46FEFF301EE0FFF1FEA5DEF
:101FD000F3408589968945DB7C019401A501612F39
:101FE000722D852DED81FE810995162F272E582EF5
:101FF0004394B0CF9091A60821E092279093A60831
:1020000010920B0187CD8091A608837011F4109275
:102010000B018091A6088C7F81608093A6080895AB
:102020008091A608837011F010920B018091A60890
:102030008C7F8093A60808959091A608937091F0E4
:10204000811589F0873188F48F73880F880F982F56
:102050002091A6082370922B9093A60810920B0152
:10206000862F58CD089581E0F0CF86E1EECF8091A4
:10207000A608869586958F5F873108F081E061E03C
:10208000DBCF8091A60886958695815009F486E17C
:1020900061E0D2CF9091A608937041F08093A70899
:1020A0006093A8084093A908822F34CD0895E6EAEA
:1020B000F8E0818190E021E0438162810896EACFD7
:1020C000E6EAF8E0818121E0438162818850990B42
:1020D000E1CFE6EAF8E0628120E1620F08F46FEFF9
:1020E000818121E0438190E0D5CFE6EAF8E062818A
:1020F00020E1621B08F460E0818121E0438190E0EF
:10210000C9CFE6EAF8E0438120E1420F08F44FEF3F
:10211000818121E0628190E0BDCFE6EAF8E0438171
:1021200020E1421B08F440E0818121E0628190E0DF
:10213000B1CF2091AA0830E1230F08F42FEF2093AC
:10214000AA0881E0E7CC2091AA0830E1231B08F41B
:1021500020E02093AA0881E0DDCC90919B08292FF4
:1021600030E070919C08A9014395437050E07417CA
:10217000150689F02756374F60FB87F9F9018483EC
:102180009F5F937090939B08809199088F5F8093D5
:10219000990881E0089580E0089590E06115D1F0FC
:1021A0008B5E9E4FFC0180818F3F99F0E82FE29576
:1021B000EF70F0E041A18F7021E001C0220F8A95FD
:1021C000EAF7922F9095942391A392A1822F892BC5
:1021D00082A308958A5E9E4FE5CF90E06115A9F035
:1021E0008B5E9E4FFC0120812F3F91F0E22FE29504
:1021F000EF70E05EF0E0808190E02F7002C0959576
:1022000087952A95E2F7817008958A5E9E4FEACFFE
:1022100080E00895539A0895FC01EE0FFF1FE80F28
:10222000F91FE55FFC4F6183408322830895FC0121
:10223000680F791F8FEF41E39191892728E030E003
:10224000982F990F87FF09C0892F8427215030408C
:10225000B9F7E617F70781F70895892FF7CF80912F
:10226000C708811103C08091A5080895E091CF08A7
:10227000F091D008309739F00190F081E02D30973F
:1022800011F00995089580E00895E9CF0895A3E03D
:10229000B0E0EDE4F1E10C947E352091070330913C
:1022A000080328173907B1F08093070390930803B8
:1022B000E091CF08F091D008309761F00084F1856B
:1022C000E02D309739F023E029838A839B83CE0168
:1022D000019609952396E2E00C949A35A3E0B0E0CC
:1022E000E4E7F1E10C947E3520910503309106037B
:1022F00028173907B1F08093050390930603E09106
:10230000CF08F091D008309761F00084F185E02D7E
:10231000309739F024E029838A839B83CE0101968C
:1023200009952396E2E00C949A35A8EEB2E0EFEF1F
:1023300090E02C91821759F01196EF3F19F421117A
:1023400001C0E92F9F5F9630A1F7EF3F09F4089590
:10235000FE2FFF0FFF0BEA51FD4F82830895E8EE39
:10236000F2E09191891302C0DF011E9292E0EE3EED
:10237000F907B9F708958091120108952FB7F894DD
:102380006091010370910203809103039091040313
:102390002FBF08958091C708811539F0EFDF462FD0
:1023A000572FBC01CB01BA010895E8DFDC01CB0156
:1023B0004091C9085091CA086091CB087091CC082F
:1023C000480F591F6A1F7B1FEDCF87E797E7809360
:1023D00000089093010888E19AE00FB6F894A89558
:1023E000809360000FBE90936000FFCF0895089522
:1023F000FC018091F7029091F8028617970748F048
:102400006115710529F48091E8008E778093E800CA
:10241000CB0140E0009741F4411106C08091E800F3
:1024200082FF30C080E0089520914A082115B1F163
:102430002530B1F12091E80023FD2EC02091E80065
:1024400022FDECCF2091E80020FFE4CF4091F30083
:102450002091F200342F009719F02830310558F000
:1024600041E02830310509F040E02091E8002E7766
:102470002093E800CFCF41914093F10001972F5F67
:102480003F4FE9CF80914A08811541F0853041F0F6
:102490008091E80083FFC2CF81E0089582E0089533
:1024A00083E00895982F9093E900891771F0709157
:1024B000EC002091ED005091F00021FD09C09F5FDC
:1024C000973089F78093E9000895762F242F50E004
:1024D0003091EB003E7F3093EB003091ED003D7F7B
:1024E0003093ED003091EB0031603093EB0070934E
:1024F000EC002093ED005093F0002091EE0027FDBA
:10250000DECF08958091F10287FF13C08091E8002B
:1025100082FF06C08091E8008B778093E8000895E1
:1025200080914A088111F2CF089580914A0881155F
:10253000D9F38091E80080FFF8CF8091E8008E7792
:10254000ECCF2091E4003091E50095E6A9012091BF
:10255000EC00822F817020FF06C08091E80080FF90
:1025600006C080E008952091E80022FD1AC0809105
:102570004A08811589F0853089F08091EB0085FD4E
:102580000FC02091E4003091E50042175307F9F2A3
:102590009150E1F684E0089582E0089583E0089583
:1025A00081E00895CF93DF93C8EDD0E088818F7EDE
:1025B0008883E7EDF0E080818160808384E082BFE2
:1025C00081E08093F00288818E7F8883E2EE108222
:1025D0001092DA00A1EEB0E01C9288818F77888398
:1025E00088818068888388818F7D888319BC109258
:1025F0004A081092EF02109210081092EE02A0EE1C
:102600008C918B7F8C9388818160888342E060E02D
:1026100080E048DFA1EEB0E08C918E7F8C93E2EEFB
:10262000F0E0808181608083808188608083E0EE3B
:1026300080818E7F8083888180618883DF91CF91C4
:102640000895E8EDF0E080818E7F80831092E200B3
:102650001092DA001092E100A0EEB0E08C9181605F
:102660008C9380818F77808319BCA7ED8C918E7FAE
:102670008C9380818F7E80831092F0020895A0E079
:10268000B0E0E5E4F3E10C9476357C016B015A018E
:102690008091AE080AE010E08A3010F001E010E00E
:1026A000C1E0D0E0B601C701F5010995811115C05F
:1026B00021960C171D078CF0CC9F9001CD9F300DFB
:1026C000300D112480E090E045E34A95F1F70000D9
:1026D000019682179307C1F7E5CFCDB7DEB7EAE0E1
:1026E0000C9492353BB1377F2BB128604FB7F894EB
:1026F0008BE093E0FC010196508168E02BB900006B
:1027000000C057FF3BB9550F000000C000C000C01B
:102710003BB900C06A9591F753E08938950751F7A6
:102720004FBF8FE594E00197F1F700C000000895D6
:102730000F931F93CF93DF93EB018A0190914A0887
:10274000943059F58093E9008FEF9091E80095FD62
:1027500006C095ED9A95F1F700008150B1F7809190
:10276000E80085FF1AC0EDDE811112C08091E800FB
:1027700085FD06C08091E8008E778093E800F3CF56
:1027800088818093F1000150104011F02196EECF26
:102790008091E8008E778093E800DF91CF911F91C0
:1027A0000F910895603229F440E250E0BC0182E0CC
:1027B000BFCF0895CF93DF93EC0148E050E0BC0118
:1027C00081E0B6DF88E0FE01A9EFB2E001900D9252
:1027D0008A95E1F7DF91CF91089543E050E0BC0185
:1027E00084E0A6CF9091F70892FB222720F92817C2
:1027F00079F080FB92F99093F7086091F608709158
:10280000F70884E090E00E947B3682E00C94820816
:1028100008951F93CF93DF93122F8430E0F4683034
:10282000D0F44630C0F4C42FD0E0CC0FDD1F2CE034
:10283000629FC00DD11D112490E6899FC00DD11D4E
:102840001124632FCE0189960E946136612FCE013B
:102850008A960E946136DF91CF911F9108950F9360
:102860001F93CF93DF93142F022F843020F5623013
:1028700010F598E0899FE001112424E0629FB001E7
:102880001124C60FD71FC755DE4F81E08427632F61
:102890009E01280F311D280F311DC9010E9461368C
:1028A00081E090E0111102C083E090E0602F8C0F76
:1028B0009D1F0E946136DF91CF911F910F91089566
:1028C000A0E0B0E0E6E6F4E10C9473359DE6C92E95
:1028D00093E0D92E7D0187014701B12C702E13C0E2
:1028E000FE01259134914A2D6B2D872D92DF229682
:1028F000A3948A2D8630A1F786E0880E911CB394AC
:102900008B2D883039F0E401CC0FDD1FC351DE4F31
:10291000A12CE6CFE601B12CFE012591349141E0D6
:102920006B2D872D9CDFFE0132962591349140E07E
:102930006B2D872D94DF24968B2DBB24B39481308F
:1029400059F70F5F1F4F88E0C80ED11C80E3E80ED7
:10295000F11C0430110509F0BFCFCDB7DEB7EDE0B3
:102960000C948F358091F0089091F808892B909104
:10297000F108911589F0892B90E028EE32E0F901F9
:1029800040812F5F3F4F41119F5F42E02E3E340751
:10299000B1F791111092F1088093E60248E050E0FF
:1029A00061ED78E086EE92E00E941836892BB9F04E
:1029B00088E0E6EEF2E0A1EDB8E001900D928A9594
:1029C000E1F7E091CF08F091D008309741F0028014
:1029D000F381E02D309719F086EE92E00995089585
:1029E0001092F008E8EEF2E086E011928A95E9F79D
:1029F00080E090E04CDC80E090E070DC1092F80821
:102A0000B1CFEEDF8FEF94E32CE081509040204077
:102A1000E1F700C0000088E19AE00FB6F894A895AD
:102A2000809360000FBE90936000FFCFAAE2B0E0F9
:102A3000ECE1F5E10C947D3581EF92E0FC0101962B
:102A40002091F100208322E0893F9207B9F780911D
:102A5000F202893009F457C0C8F4823009F4B3C0D7
:102A6000833009F483C0813081F18091E80083FFD5
:102A7000E7C08091F1029091F2029A3008F0E0C034
:102A8000E92FF0E0EF57F94C0C94E0358A3009F467
:102A90008AC08B3051F78091F102813231F78091F9
:102AA000F5029091F602892B01F78091E800877F6B
:102AB0008093E80027DD81E09091F302911101C03D
:102AC00080E0809313018CDFD0CF8091F102813AB6
:102AD00061F68091E800877F8093E8008091F5029D
:102AE0009091F602892B59F060E080E090E070E070
:102AF0007FDC8091E8008B778093E800B6CF68E0B8
:102B000089EF92E0F4CF8091F102813209F0ADCFEC
:102B10008091F5029091F6028D7F892B09F0A5CF67
:102B20008091E800877F8093E8008091E80082FF31
:102B300018C02091F3008091F200922F029731F497
:102B40008091F100813011F0863021F48091F10004
:102B5000809312018091E8008B778093E800D2DCAB
:102B600084CF80914A088111E0CF7FCF8091F1021C
:102B7000813A09F07ACF8091F5029091F602892B83
:102B800009F073CF8091E800877F8093E8008091FF
:102B9000E80080FFFCCF809113018093F1008091C9
:102BA000E8008E77DACF8091F102813209F05DCFB3
:102BB0008091E800877F8093E800A4DC8091F40294
:102BC0008093110152CF8091F102813A09F04DCFEB
:102BD0008091E800877F8093E8008091E80080FF83
:102BE000FCCF80911101D9CF803889F0823841F52E
:102BF0008091F5028F70873018F58093E9008091FD
:102C0000EB0085FB882780F91092E90006C08091CF
:102C10001008880F9091EE02892B9091E800977F21
:102C20009093E8008093F1001092F1008091E80009
:102C30008E7723C0811116C08091F302813009F193
:102C40008091E80083FF0AC08091E800877F80932D
:102C5000E8008091EB0080628093EB00AA96E3E0AD
:102C60000C949935823061F78091F302811579F0E7
:102C70001092E9008091E800877F8093E80042DCB1
:102C8000DFCF933009F080E080931008F1CF80917E
:102C9000F5028F70282F2150263090F68093E9009E
:102CA0002091EB0020FFE4CF933031F48091EB00D2
:102CB00080628093EB00DCCF9091EB009061909369
:102CC000EB0021E001C0220F8A95EAF72093EA0089
:102CD0001092EA008091EB008860EBCF8111B0CFB9
:102CE0008091F3028F77182F8091E3008078812BF9
:102CF0008093E3008091E800877F8093E80002DC06
:102D00008091E80080FFFCCF8091E3008068809391
:102D1000E30083E0111101C082E080934A0890CF64
:102D20008058823008F08CCF8091F3029091F402A9
:102D30008C3D23E0920789F583E08A838AE28983C8
:102D40004FB7F894DE01139620E03EE051E2E32F06
:102D5000F0E050935700849120FF03C082958F705C
:102D60003F5F8F708A30B8F0895C8D931D922F5F22
:102D7000243169F74FBF8091E800877F8093E80096
:102D80006AE270E0CE01019633DB8091E8008B7738
:102D90008093E80055CF805DE8CF292F30E02330C5
:102DA000310509F44EC078F52130310509F47DC0B4
:102DB0008BE590E0E4E4F1E02230310509F040CF0A
:102DC0002091E800277F2093E8002091F7023091BE
:102DD000F8028217930708F49C0140E021153105A1
:102DE00009F068C0411166C08091E80082FDCDCF36
:102DF00080914A08811549F2853039F28091E800C6
:102E000083FFF2CFC2CF8091F5029091F60221327A
:102E1000310509F43BC02232310509F011CF83306E
:102E2000910508F00DCFFC01EE0FFF1FE657FE4F96
:102E30000190F081E02D89579E4FDC018C9190E04C
:102E400011C0282F30E0813089F022303105B1F0F7
:102E5000232B09F0F5CEE9EEF1E0E4918E2F90E01E
:102E6000E9EEF1E0009709F4EBCEAACFEDEBF1E04B
:102E7000E4918E2F90E0EDEBF1E0F4CFE1EBF1E0A7
:102E8000E4918E2F90E0E1EBF1E0ECCF83309105FF
:102E900008F0D6CE880F991FFC01E057FE4F019035
:102EA000F081E02D89E090E08BCF82E190E0EFE9C6
:102EB000F1E086CF80914A08811509F466CF85300C
:102EC00009F463CF8091E80083FD5FCF8091E80033
:102ED00082FD8ACF8091E80080FF80CF4091F3008F
:102EE0008091F200942F2115310519F08830910559
:102EF00050F041E0089709F040E08091E8008E77BB
:102F00008093E8006BCF44914093F10031962150BB
:102F100031090196E8CF803809F092CE8091E8001F
:102F2000877F8093E8008091EF028093F1007ECE4E
:102F3000811186CE8091F302182F823008F080CE66
:102F40008091E800877F8093E8001093EF02DADA3F
:102F50001115D9F084E080934A0842E061EC81E0E9
:102F6000A1DA42E261EC84E09DDA42E261EC82E0C7
:102F700099DA42E260EC83E095DA80914A08843085
:102F800051F482E0809314015BCE8091E30087FDD1
:102F9000E1CF81E0E0CF81E0F5CFCF93C82F81155D
:102FA000A1F08238A1F471D981FD0FC089E3BDD9A8
:102FB000D9DC8FEF97EE23E0815090402040E1F77D
:102FC00000C0000089E3CBD9CDDCCF9108958338D0
:102FD00089F45BD980FDF9CF83E5A7D9C3DC8FEFF6
:102FE00091EE24E0815090402040E1F700C00000C5
:102FF00083E5E9CF843889F448D982FDE6CF87E4B8
:1030000094D9B0DC8FEF91EE24E0815090402040C5
:10301000E1F700C0000087E4D6CF8450813A70F415
:10302000E8EEF2E08EEE92E02081C21771F1319667
:103030008E179F07C9F78C2F78D9C6CF8C2F805E4B
:10304000883060F4C77021E001C0220FCA95EAF70A
:103050008091F008822B8093F008B6CF8C2F855A90
:10306000833028F48C2F8452990B11D9AECFC85AD3
:10307000CB3108F0AACFEC2FF0E0EE0FFF1FE255A6
:10308000FD4F808191812AD9A0CF8C2F68D96ADC2D
:10309000D2CF811509F43FC0823849F4F6D881FFB8
:1030A0003AC089E342D95EDC89E359D95BCC8338E5
:1030B00041F4EBD880FF2FC083E537D953DC83E59B
:1030C000F4CF843841F4E1D882FF25C087E42DD9BC
:1030D00049DC87E4EACF982F9450913A30F3982F47
:1030E000905E983058F4982F81E091FD84E090FD37
:1030F000880F92FD82950E949808D8CF982F955AF4
:10310000933018F480E090E0C2C8885A8B3118F4EC
:1031100080E090E0E3C808951F93CF93DF93182FCA
:10312000EB013BDF209731F4812FB3DFDF91CF91AB
:103130001F9108958FE99FE00197F1F700C000000B
:103140002197F0CF811531F09091F008982B909352
:10315000F00808CC0895811519F00E94980802CC57
:103160000895CF92DF92FF920F931F93CF93DF9337
:103170006901E801082F880F110B41155105B1F0C5
:10318000F80133E0EE0FFF1F3A95E1F7EC5DFE4FDB
:10319000818192818A58974FE0812E2F30E04E171F
:1031A000510508F49A01A9010E942536C8010E9420
:1031B000EC34F82E8115E1F02097D1F0C80123E01E
:1031C000880F991F2A95E1F7FC01EC5DFE4F2381E2
:1031D000422F50E0C217D10508F4AE018C5D9E4F1E
:1031E000FC01648175816A58774FC6010E942536BB
:1031F0008F2DDF91CF911F910F91FF90DF90CF9096
:103200000895A4E0B0E0E7E0F9E10C947A35E090AD
:103210006008F09061080091620810916308AED8D0
:10322000DC01CB018E199F09A00BB10B11E0843694
:103230009105A105B10500F1ADD8DC01CB010296E5
:10324000A11DB11D89839A83AB83BC8300E010E08C
:10325000980144E050E0CE010196BC0186E081DF98
:10326000182F811549F08AD860936008709361081F
:103270008093620890936308812F2496E6E00C9473
:103280009635A1E0B0E0E7E4F9E10C946E35662EE6
:103290002A01190168018D019E012F5F3F4F40E017
:1032A00050E0BA015EDF182F8115A1F1F201808094
:1032B0009180A280B38062D87980681979098A09DF
:1032C0009B09643671058105910530F4B701C6018B
:1032D0000E9417118715F1F08701910140E050E03D
:1032E000BA01862D3EDF082FB701C6010E941711D3
:1032F00010E087110AC0102F117000FF06C03ED8E1
:10330000F2016083718382839383812F2196E2E1AE
:103310000C948A35A701B601C1010E942536F5CF6C
:10332000A4E0B0E0E6E9F9E10C9478356B017D01A9
:1033300007E718E0CE0101969C0142E758E061E002
:1033400080E09FDF811561F049815A816B817C812A
:1033500040936E0850936F086093700870937108E3
:1033600040916E0850916F086091700870917108DB
:10337000F60140835183628373832496E8E00C94C2
:103380009435A8E0B0E0E7ECF9E10C947A357D01E2
:1033900000E818E0CE0101969C0146E658E064E0A2
:1033A00083E06FDF182F811599F190917F0880914C
:1033B0006508981769F190918308809182088917B0
:1033C00009F1E92FF0E0E658F74F828587FB662781
:1033D00060F99F5F937090938308909181089F5F3D
:1033E000909381088F770E94AD10F82E8111E3CF62
:1033F00000E010E09801A801B80185E0B2DEF822F3
:103400001F2D02C0F110F4CF80917F0880936508D2
:10341000812F2896E6E00C949635A0E0B0E0E3E139
:10342000FAE10C947435D82EEB01C42E59014801F1
:10343000E880F9800A811B810E94BE11DC01CB016A
:103440008E199F09A00BB10B84369105A105B1051A
:1034500010F4C11479F000E010E09801A401B50166
:103460008D2D7FDE811539F00E94BE11688379832E
:103470008A839B8381E0CDB7DEB7ECE00C94903576
:103480000F931F9341E090918C088091F40898135A
:1034900001C040E001E010E024EF38E06CE578E0A6
:1034A00087E0BBDF811571F041E090918D0880913C
:1034B000F308981301C040E023EF38E068E578E0B6
:1034C00088E0ABDF1F910F910895A1E0B0E0EBE63B
:1034D000FAE10C947C3580914B08898320919808FF
:1034E00090E041E02817190609F440E08D01CE0173
:1034F00001969C016CE478E08BE08FDF2196E4E09C
:103500000C949835CF92DF92FF920F931F93CF9335
:10351000DF93F82E6B01EA01A801B901CE010E94E8
:10352000183641E0892B09F440E09E01B6018F2D49
:1035300074DFDF91CF911F910F91FF90DF90CF90BB
:1035400008950F931F9304E010E02BE738E0AC01DF
:103550006AE678E082E0D6DF1F910F910895A1E03E
:10356000B0E0E5EBFAE10C947C350E942F118983E1
:1035700001E010E02EE838E0CE010196AC0164E5F0
:1035800078E089E0BFDF2196E4E00C949835A9E06B
:10359000B0E0EDECFAE10C947C3588E0E6EAF8E086
:1035A0009E012F5F3F4FD90101900D928A95E1F75F
:1035B000198609E010E02FE838E0CE010196AC0151
:1035C00060E578E08AE09EDF2996E4E00C94983587
:1035D0000F931F93CF93DF93843008F56830F8F48E
:1035E0004630E8F4C42FD0E0CC0FDD1F9CE0699F8B
:1035F000C00DD11D112490E6899FC00DD11D11244D
:10360000CE0189960E944536082FCE018A960E94E7
:103610004536902FDF91CF911F910F91089580E053
:1036200090E0F8CFFF920F931F93CF93DF93F42E88
:10363000843048F5623038F598E0899FE001112424
:1036400084E0689FB0011124C60FD71FC755DE4F15
:1036500081E084279E01280F311D280F311DC901EB
:103660000E944536082F81E090E0F11002C083E00F
:1036700090E08C0F9D1F0E944536902FCDB7DEB78E
:10368000E5E00C94973580E090E0F8CF783038F49E
:10369000663060F4843050F4462F672F99CF7D3F19
:1036A00041F4623018F441E0843050F080E090E062
:1036B00008957C3FD9F76230C8F78430B8F740E00E
:1036C000B1CFCF92DF92FF920F931F93CF93DF93EF
:1036D0006C010091F4088091F308082BC3E0D0E05E
:1036E00010E0C8010C2E02C0959587950A94E2F768
:1036F00080FD0CC02197A8F7F12C8F2DDF91CF9181
:103700001F910F91FF90DF90CF900895FC2EB6018E
:103710008C2FBCDF0E949209019761F3EECF0F93CB
:103720001F93CF93FC01258100811181C8012115D0
:1037300079F0611569F0C5DFC82F682FC8010E94B4
:103740000B08B8018C2FA2DFCF911F910F91089524
:103750000E942408C82FF5CFCF93DF93EC01B1DF8F
:10376000BE0194DF0E949209DF91CF910895FC0180
:103770002481211599F080819181EEDF282F929587
:103780009F70963099F060F4925F9F70923030F4A1
:10379000203FB1F038F481E0283E38F080E0089511
:1037A0009A5FF3CF81E0243FC9F7089591E0213F6C
:1037B00009F090E081E0283E08F080E0892B089530
:1037C00081E00895673322E072078105910528F4AE
:1037D000CB0187539E4F0C94453680E00895CF92DD
:1037E000DF92EF92FF92CF93DF93EC01C880D980F4
:1037F000EA80FB80B601C701E5DF9FEFC91AD90A4D
:10380000E90AF90AC882D982EA82FB82DF91CF9164
:10381000FF90EF90DF90CF90089585E290E00E94B6
:103820004536853269F486E290E00E94453689305B
:1038300039F487E290E00E94453691E0803209F049
:1038400090E0892F8170089548E050E067E170E0D2
:1038500086EA98E00E9452361092D90308958DE2CC
:103860008093A6088091840190918501A0918601A2
:103870008093A7089093A808A093A9088FE7809346
:10388000AA088FEF8093AB08DFCF8F929F92AF9201
:10389000BF92DF92EF92FF920F931F93CF93DF932C
:1038A0008090D1039090D203A090D303B090D40322
:1038B0008091C708811509F44DC00E94BE11681996
:1038C00079098A099B097B018C010E94CA114B016D
:1038D0005C016093D1039092D2038093D303B092A2
:1038E000D403A0911108E1E1F8E08A2F90E04FEFB6
:1038F0005FEF60E070E04E195F09600B710BA91378
:103900002CC0809311088091A608C82FC37019F0AD
:10391000C82FC695C69590910B01923009F48DC1C0
:1039200060F5911139C010920E018092D5039092EA
:10393000D603A092D703B092D80389E2E1E1F8E080
:10394000AAEDB3E001900D928A95E1F781E08093B2
:103950000B0116C00E94CA11B2CF218D328D4217C1
:1039600053076105710520F481509F5F3296C7CFE0
:103970002E0D3F1D218F328FF8CF933009F465C192
:10398000DF91CF911F910F91FF90EF90DF90BF904B
:10399000AF909F908F90089590910A01C91320C015
:1039A00083702091090130E091E08217130609F439
:1039B00090E0909310018091AB0890910F019817BF
:1039C00039F080930F0140E060E080E00E94E90D53
:1039D000C73188F4EC2FF0E0E557F94C0C94E03552
:1039E00091E0E7CF80911001811529F040E060E07F
:1039F00080E00E94E90D80E090910E019F5F90931E
:103A00000E018111BDCF82E080930B0180911001E6
:103A10008111B6CFC111B4CF83E099CF80910E014F
:103A20000E94010E082FF92E6091A7087091A80836
:103A30008091A9080E949A0AE62EB72EA82E10E0BF
:103A4000F01609F020F48F2D0E941C0BD5CFF80141
:103A5000EE5CFD4F808190910F01892331F02A2D7A
:103A60004B2D6E2DC8010E94900D0F5F1F4FE8CFA8
:103A700080910E010E94010EB82EF92E1091A70818
:103A80000091A808E090A908612F702F8E2D0E9448
:103A90009A0AD62FA72E982E8091AA08612F680F18
:103AA000702F8E2D0E949A0AE62E872ED82E0B2D6F
:103AB00010E0F01641F238F2F801EE5CFD4F908113
:103AC00080910F01892359F02D2D482D6E2D90FDE9
:103AD00003C0292D4A2D6D2FC8010E94900D0F5F44
:103AE0001F4FE7CF8EEB9BE00E94CA0E85CF81ED82
:103AF0009BE0FACF85E09CE0F7CF88E39CE00E9452
:103B0000830E7ACF84E59CE0FACF8FE69CE00E949A
:103B1000160E72CF89E89CE0FACF82EA9CE0E4CFEF
:103B200084EA9CE0E1CF8DEA9CE0DECF86EB9CE06E
:103B3000E6CF10910E01111131C06091AA0820E169
:103B4000620F08F46FEF8091D5039091D6030E9425
:103B5000310B6AE070E00E945A35892BF9F44091EC
:103B60000C0150910D0125E038E0429FC001439FB8
:103B7000900D529F900D1124875E994C80930C01FB
:103B800090930D01890F2AE2829FA0011124852FB5
:103B9000880F880B5093070180930801812F0E94A2
:103BA000010E092F182F90911001911117C020912B
:103BB0000701309108012817310590F020173105D1
:103BC00078F4822F0E94990D8BE280930701109266
:103BD000080106C0812F0E94990D1F5F1017D0F3B6
:103BE000802F32CF86EC9CE07FCF8CED9CE07CCFA9
:103BF0008CEF9CE079CF85E19DE00E94070FFCCE21
:103C000083E29DE0FACF66E37DE080E00E94730FDF
:103C1000F3CE21E03091DA03321B08F430E0832F39
:103C200063E67DE0F3CF21E03091DA03321B08F444
:103C300030E0832F68E77DE0E9CFC0930A0183700D
:103C4000809309010E947213E7CE8091D9038111FC
:103C5000FBDD8090D5039090D603A090D703B09061
:103C6000D8038091C708811579F00E94BE116819A8
:103C700079098A099B09603171058105910508F46C
:103C80007FCE10920B017CCE0E94CA11F0CFA0E132
:103C9000B0E0EDE4FEE10C947035FE013196DF01F9
:103CA00080E11D928A95E9F704E210E099ECA92ED3
:103CB00091E0B92E612C712C2501539441949E2ED4
:103CC0008F2E6201730181E1481651046104710471
:103CD0001CF080E1C82ED12CA601B501892D982DAC
:103CE0000E945236AC0CBD1C0D2C000C00084C1868
:103CF0005D08600870080150104019F76096E0E117
:103D00000C948C356FEF85E290E00E9461366FEF86
:103D100086E290E00E9461366FEF87E290E00E94B9
:103D2000613660E088E290E00E9461360E94601493
:103D3000AEDF65E285E290E00E94613669E086E2EE
:103D400090E00E94613660E287E290E00C94613678
:103D5000AB0124E630E0BC0188E70E940C339C01F3
:103D600081E0232B09F080E00895809108088115F7
:103D7000F1F00E94BE11DC01CB01805A9541AF4F9A
:103D8000BF4F8093090890930A08A0930B08B09343
:103D90000C0880914B0881110AC062E070E088EE47
:103DA00097E0D6DF811519F081E080934B080895E4
:103DB00080910808811561F080914B08811541F0D0
:103DC00062E070E086EE97E0C3DF811110924B084D
:103DD0000895CF93DF93682F81E06A3019F06D303A
:103DE00029F480E072D0DF91CF910895809105048D
:103DF0009091060426E0FC01ABECB3E001900D923B
:103E00002A95E1F726E0603E08F455C0FC011192C6
:103E10002A95E9F7C0910504D091060446E050E0E8
:103E2000BE018BEC93E00E9418369E01275034406F
:103E3000892B41F1C90146E0969587954A95E1F7AE
:103E400041E050E0BA0102C0660F771F8A95E2F7A1
:103E5000CB016091030470910404862B972BB90168
:103E60006B5F7F4FE6E076956795EA95E1F702C0D4
:103E7000440F551F6A95E2F7842B952B809303041A
:103E8000909304042A5F3F4F40910D08642F70E027
:103E9000C9010E945A35481B463010F4240F311DC9
:103EA000343010F020E030E0295F3B4F20930504D0
:103EB0003093060498CF629FB00111246651784F69
:103EC00046E050E00E940F36A5CFCF93382FE09107
:103ED0000504F0910604E750F44020910D08622F8C
:103EE00070E0CF010E945A35281B822F311561F0F6
:103EF00066E00E94A535C82FC11102C0CF91089578
:103F0000C15080E266DFF8CF8E0F9F2F911D943055
:103F100010F080E090E0895F9B4F809305049093C0
:103F20000604ECCFCF93DF93EC01FE018491811165
:103F300003C0DF91CF9108954CDF2196F6CF1F92F9
:103F40001FB61F9211248F939F93AF93BF938091BD
:103F50000F08811113C08091010390910203A09179
:103F60000303B09104034196A11DB11D8093010389
:103F700090930203A0930303B0930403BF91AF9106
:103F80009F918F911F901FBE1F9018952FB7F89487
:103F90008091010390910203A0910303B091040367
:103FA0002FBF0895CF93DF93EC01F0DF8C1B9D0BA7
:103FB000DF91CF910895ACE0B0E0E1EEFFE10C9429
:103FC0007535FE013196DF0188E01D928A95E9F78B
:103FD0008EE6C82E82E0D82E7F01AE2E9F2C08E7F9
:103FE00012E0F60181916F018F3F09F43DC0F89412
:103FF000E82FE295EF70F0E021A18F7041E001C061
:10400000440F8A95EAF7922F942B91A392A1842FC3
:104010008095892382A3789400C0E2E7F2E031E042
:10402000B12C21912F3F79F0A22FA295AF70A05E05
:10403000B0E08C9190E02F7002C0959587952A95FD
:10404000E2F780FFAEC080E0B82A330F0E171F07DB
:1040500041F7F60182918F3F11F00E94800A80EAB9
:104060008A95F1F7F701B0828FEFE81AF80A82E734
:10407000C81682E0D80609F0B4CF48E050E06A2DB7
:10408000792D8FEB98E00E941836009749F028E0D0
:10409000EA2DF92DAFEBB8E001900D922A95E1F7EA
:1040A0000091BE0810E00A54174F892B09F47BC019
:1040B00081E08093B5086ADF8093B3089093B408D9
:1040C0008091C708811509F4C6C07E0189E0E80E19
:1040D000F11CF70184E011928A95E9F78091AE080E
:1040E0008A3008F083C040E959E1B701C8010E9455
:1040F0003F13811509F49EC041EA5AE1B701C80196
:104100000E943F13811509F495C041EC59E1B701B4
:10411000C8010E943F13811509F48CC041E059E1A8
:10412000B701C8010E943F13811509F483C040E420
:104130005AE1B701C8010E943F13811509F47AC002
:104140004FEA5AE1B701C8010E943F13811509F4F3
:1041500071C047EC5AE1B701C8010E943F138115B5
:1041600009F468C045E65AE1B701C8010E943F134F
:10417000811509F45FC01092AE088091B20890E0FA
:1041800044E050E0B7018A54974F0E94183621E06E
:104190002093B108892B09F03FC02C96EBE00C94DA
:1041A0009135832F51CF8091B508811509F488CFBF
:1041B000E090B308F090B408E9DE8E199F090597E6
:1041C00008F47ECF44E050E06FEB78E0C8010E9435
:1041D0001836892B41F084E0EFEBF8E0D80101902C
:1041E0000D928A95E1F71092B5086ACFC090AF089A
:1041F000D090B008CBDE8C199D09843F914008F027
:1042000072CF8091B108811541F2F70184E01192DB
:104210008A95E9F71092B108E091B208F0E0EA540B
:10422000F74F89859A85AB85BC8580839183A2836E
:10423000B383B3CF8091AE088F3F31F4A7DE809374
:10424000AF089093B008DDCF8F5F8093AE088A30BF
:1042500008F493CFF3CFE090B208F12CC7018A5451
:10426000974F7C01F80180819181A281B381809375
:10427000770890937808A0937908B0937A0864E05F
:1042800070E087E798E00E9417118093760880918C
:104290007B0890917C08A0917D08B0917E08F70181
:1042A00080839183A283B38388E0E9E9F8E0A0E802
:1042B000B8E001900D928A95E1F768E070E080E83F
:1042C00098E00E94171180937F08C0908808D090D2
:1042D0008908E0908A08F0908B088091A10890915D
:1042E000A208A091A308B091A408C816D906EA06AE
:1042F000FB06B1F0C092A108D092A208E092A308F8
:10430000F092A4080E94BE11C61AD70AE80AF90A58
:10431000C092C908D092CA08E092CB08F092CC08AB
:1043200080918C088093F40880918D088093F30825
:1043300080918E088093A50888E0EFE8F8E0A6EA6F
:10434000B8E001900D928A95E1F780919808811567
:1043500011F00BDD22CF2CDD20CF4F925F926F92B8
:104360007F928F929F92BF92CF92DF92EF92FF92B5
:104370000F931F93CF93DF9380910808811509F461
:104380003EC1C091C903D091CA0300DE8C1B9D0BB6
:10439000C29708F458C0FADD8093C9039093CA030A
:1043A00087E094E080930504909306048091C70809
:1043B000811509F43AC180ED93E0B4DD81E085DD3B
:1043C0008091F70880FF2BC188EB93E0ABDD82EC96
:1043D00093E0A8DD8BEB93E0A5DD8091F70880FFEB
:1043E00021C18BEA93E09EDD82EC93E09BDD8EEAB7
:1043F00093E098DD80ED93E095DD81E066DD0E943D
:104400004511C82F85EA93E0C0FD02C082EA93E01F
:1044100089DD8FE993E0C1FD02C082EA93E082DD8D
:104420008DE893E0C2FD02C082EA93E07BDD83E980
:1044300093E078DD82EA93E075DD82EA93E072DD55
:1044400080E993E06FDD8091030490910404892B4F
:1044500009F4BBC080910808811509F4B6C08091A9
:1044600007088111B2C081DC80910304909104049B
:10447000009709F4AAC0C82FC170D0E010E080FDF9
:104480000FC041E050E01F5FEA01012E02C0CC0FD7
:10449000DD1F0A94E2F79E0128233923232B99F389
:1044A00080910E0880FFEDC0912F990F990F990F01
:1044B000492F995F392F80E027E0409302018093D4
:1044C0000501309303012093060124E630E047E024
:1044D00050E060E071E088E70E94B132892B09F07A
:1044E00074C080E4189FA001112480910E0880FF01
:1044F000D8C0E9E8F3E080E411928A95E9F73EE953
:10450000632E31E0732E86E991E04C0166EA71E09A
:10451000D301ED913D01D4010D914D01040F152FF3
:10452000111DF0E0E757FC4F80E090E027E0B22E4D
:10453000B81ACC24C394082E01C0CC0C0A94EAF714
:104540009801295F3B4F2901E12CD201FD902D01FB
:10455000FC202B2D2E19277030E0AF2D022E01C02C
:10456000AA0F0A94EAF7DA2E3195219531092770BE
:10457000332701C0F6942A95EAF7DF282081D22A52
:10458000D082E3942E2D283001F7019631968830A1
:10459000910561F66615770509F0BACF04E610E0DB
:1045A00020E449E853E060E488E70E946933892BFE
:1045B00061F4C095D0958091030490910404C823C0
:1045C000D923C0930304D093040480914B08811530
:1045D000B1F00E94BE11C0910908D0910A08E09183
:1045E0000B08F0910C08DC01CB018C1B9D0BAE0B72
:1045F000BF0B8F3F9F4FAF4FBF4708F4D9DBDF9111
:10460000CF911F910F91FF90EF90DF90CF90BF90CF
:104610009F908F907F906F905F904F90089585EB63
:1046200093E0D4CE88EA93E0DECE2091030430916B
:104630000404A7E0B4E080E090E061E070E0FC01F9
:10464000EA51FC4FE4914D91E41789F0ED01EA93B2
:10465000AC01E6E056954795EA95E1F7FB0102C00B
:10466000EE0FFF1F4A95E2F7AF012E2B352B019677
:10467000811544E0940719F7209303043093040450
:10468000E2CE20E4129FC0011124880F892F881FD9
:10469000990B9195282F10FB442746F9342F315C54
:1046A0000CCF495F5B4F04E610E020E430E07BCFA5
:1046B000FF920F931F93CF93DF93C62FD42FF22E29
:1046C0008115A9F06093EE0861DC80930903909353
:1046D0000A0381E0C1FD84E0C0FD880FC2FD829520
:1046E0000E94A218CDB7DEB7E5E00C949735809113
:1046F000EE08681333C00091090310910A0346DCE9
:10470000801B910B883C910548F51D2F105ECD173D
:10471000A1F0C77001E0802F01C0880FCA95EAF7A9
:104720000E94AB18183048F48D2F877001C0000F1D
:104730008A95EAF7802F0E94A21860E070E08F2D22
:104740000E948C1881E0D1FD84E0D0FD880FD2FD5D
:104750008295183038F60E94AB18C4CF81E0C1FDB5
:1047600084E0C0FD880FC2FD8295F5CFA4E0B0E0E3
:10477000ECEBF3E20C9473357C01FC018481811530
:1047800009F485C061E0C7010E948F1B8C01F7010D
:104790008581811509F4E2C0980137572038310529
:1047A00008F0F8C4003108F063C066E372E080E00E
:1047B00090E008D881115CC0A12CB12C45010111F9
:1047C00021C089829A82AB82BC828E010F5F1F4F0B
:1047D000C80105D8B02EA12E813008F449C009F0D7
:1047E00072C0C8010E94EF1B813001F5C8010E9410
:1047F000EF1B60E570E0893311F060E070E00E942B
:104800008C18E6CF87E3881682E09806A104B104ED
:1048100079F1B401C5010E94E21B9FEF891A990A40
:10482000A90AB90A8111EECF0150C9CF823031F403
:10483000C8010E94EF1B0E94CD17CACF833031F40C
:10484000C8010E94EF1B0E944918C2CF843071F446
:10485000C8010E94EF1BC12CD12C282F2053330BF1
:104860002A303105C0F0C114D10419F58111B0CF3F
:104870008091F508877059F0F7018581811539F02D
:104880008091F70882FF03C082E00E94820824968C
:10489000EDE00C948F354AE04C9DC0014D9D900D8C
:1048A0001124280F391F69018B2D9A2D0E94EF1BAF
:1048B000D4CFEFE9FFE03197F1F700C0000091E0BD
:1048C000C91AD108D0CFE82FF0E0E458F14F949105
:1048D000792E282F26952695269530E0F901E45962
:1048E000F14FC4908770D12C082E02C0D594C79484
:1048F0000A94E2F7F901E45AF14FA490B12C082E82
:1049000002C0B594A7940A94E2F7245B314FF901F1
:104910008490912C02C0959487948A95E2F7C0FE0A
:1049200003C081EE0E94CD17A0FE03C086EE0E9458
:10493000CD1760E070E0872D0E948C18A0FE03C0A8
:1049400086EE0E944918C0FE03C081EE0E944918FD
:1049500080FE3ECF60E070E08CE251CFF801E8517C
:10496000FC47E730F10508F0F0C3EE55F94C0C9424
:10497000E03526E241EE61EE9BDE7ACF27E245EE9E
:1049800065EEFACF26E241EE60EEF6CF27E245EE85
:1049900064EEF2CF26E241EE62EEEECF27E245EE84
:1049A00066EEEACF28E241E0EBCF8091F608816025
:1049B0008093F6086091F6087091F70884E090E023
:1049C0000E947B360E94F01453CF8091F7088860D4
:1049D0008093F708EFCF8091F6088260E9CF80914D
:1049E000F6088460E5CF8091F6088860E1CF809179
:1049F000F7088160EDCF8091F7088260E9CF809160
:104A0000F6088061D5CF8091F6088062D1CF809181
:104A1000F6088064CDCF0E94F0148091F60880687B
:104A2000C7CF8091F6088C60C3CF8091F708836070
:104A3000CFCF8091F6088E7FBBCF8091F708877F1C
:104A4000C7CF8091F6088D7FB3CF8091F6088B7F1A
:104A5000AFCF8091F608877FABCF8091F7088E7F2C
:104A6000B7CF8091F7088D7FB3CF8091F6088F7E06
:104A70009FCF8091F6088F7D9BCF8091F6088F7B2A
:104A800097CF0E94F0148091F6088F7791CF809194
:104A9000F608837F8DCF8091F7088C7F99CF909116
:104AA000F608892F8B7F92FF8460877F92FF886052
:104AB0007FCF8091F708982F909590FB80F990FB1D
:104AC00081F986CF9091F608892F8F7B96FF8064BD
:104AD0006FCF0E94F0149091F608892F97FB87F909
:104AE000805866CF61E08EE090E00E94613662CF30
:104AF00060E0F9CF9091F608892F8F7E94FF806156
:104B000057CF9091F608892F8E7F90FF816050CF0C
:104B10009091F708892F877F93FF886059CF89E2AA
:104B20001FC39091F0089272F801E054F847ED30FD
:104B3000F10508F04FC0E755F94C0C94E03592723E
:104B4000F801E052F847EB30F10508F043C0EA54B1
:104B5000F94C0C94E03581E00E94FA0F89CE911552
:104B600011F10E94411084CE911511F10E94601044
:104B70007FCE911511F10E9475107ACE911511F129
:104B80000E948D1075CE911511F10E94A31070CE68
:104B90000E94031081E00E948A0D6ACE0E941010CC
:104BA000F9CF9115F1F20E94371062CE9115F1F212
:104BB0000E9457105DCE9115F1F20E94691058CEF7
:104BC0009115F1F20E94811053CE9115F1F20E94DD
:104BD00099104ECE07379CE71907F1F008379CE78C
:104BE000190749F19801205E32452032310548F518
:104BF000811139C00F7181E090E002C0880F991FC8
:104C00000A95E2F78C01682F83E090E00E946136FC
:104C1000802F0E949C072CCE811549F081E00E94D4
:104C2000A20743E062E081E00E943B0821CE81E0E0
:104C30000E94AB07F6CF811511F082E0F0CF82E041
:104C4000F7CF8115C9F10B359CE7190759F10C35E0
:104C50009CE71907E1F00A359CE7190709F10130D3
:104C60009CE7190739F103309CE71907E9F00115B2
:104C70001C4711F50E94F0148FEF94E32CE0815053
:104C800090402040E1F700C000000E94E5118091B3
:104C9000F708002482FF0394802D0E94F213E8CDD0
:104CA00081E0FBCF80E0F9CF6FEF7FEF80E090E015
:104CB0000E947B360E940115F70100811181811548
:104CC00009F45BC0C8010E94611BD82E682FC8017F
:104CD0000E940B08B8018D2D0E94461B0E9492096C
:104CE000182FA92EF701B580D680D2948FE0D82254
:104CF0008091F508877001F1CB2CB114F1F0892F68
:104D0000807F803461F0812F805E8830A8F0892F09
:104D1000807E803221F4123078F0D11469F08091D5
:104D2000F70882FF09C082E00E9482088091F5089E
:104D30008770CC24C3948111C12C8A2D82958F70E9
:104D4000883009F409C1C0F58430E0F4823008F4F9
:104D500044C00A2D0F708A2D807F803211F0029599
:104D6000007F113008F472C009F4BBC0B11409F41B
:104D7000C6C0D11409F488C048C0C8010E942408E4
:104D8000D82EA8CF09F4CCC0C11409F414C1809165
:104D9000F50880FD10C1F7011582869586958695E8
:104DA0000E94A207C701E2DC8091F50886958695EE
:104DB00086950E94AB07FFC0893009F447C18A5F1E
:104DC0008F70823008F7123F09F052C18A2D8F711F
:104DD000B1104BC10E94A207ECC00A2D0F708A2DA2
:104DE000803110F00295007FB114B9F0011569F01F
:104DF000812F805E883010F0111109C08091F00879
:104E0000802B8093F0080E94B214812F2FC08091D4
:104E1000F808802B8093F808F6CF812F0E9449185C
:104E2000011509F4B1CF812F805E883010F0111187
:104E300004C0802F0E94980806C000958091F80851
:104E400080238093F8080E94B2149ECF8091F708C7
:104E500082FD16C0B11469F0011539F08091F00897
:104E6000802B8093F0080E94B21480E00E94CD173E
:104E70008BCF80E00E944918011509F485CFD9CF66
:104E8000B114A9F0D11004C0802F0E94A2187CCFC9
:104E90008D2D813009F078CF8091F108902F9823E3
:104EA000091709F471CF802B8093F1086DCFD110D1
:104EB0006BCF802F0E94AB189091F108802F89232F
:104EC00029F0802F809589238093F1088091F20842
:104ED000902F982309F458CF009508230093F208E7
:104EE00053CF8D2DB11421F0863008F04DCFCCCFAB
:104EF000853008F049CF802F0E94AB1845CFD114E0
:104F0000D1F3193349F48FEF97EE23E081509040AD
:104F10002040E1F700C00000812F0E94491834CFE3
:104F20008A2D869586958370813060F009F02CCFAC
:104F3000812F9A2D9370B11002C080E090E00E9402
:104F40006E1122CF812F9A2D9370B11002C080E094
:104F500090E00E94471118CF8A2D8370E1F5B110BF
:104F600028C0812F829586958770880F880F412FE2
:104F70004F70082E01C0440F0A94EAF7212F2071C8
:104F800014FF06C02FE001C0220F8A95EAF7209592
:104F90008A2D869586958370982F8230A1F0833074
:104FA000B9F08091F308913059F0242B82230E94AC
:104FB0009C070E942F1160E0C7010E948F1B67CCE5
:104FC000842B822BF4CF242B8091F3088227EFCF00
:104FD000822F842BECCFB11459F1A0FEEACF812FA0
:104FE000829586958770880F880F412F4F70082E05
:104FF00001C0440F0A94EAF7212F207114FF06C064
:105000002FE001C0220F8A95EAF720958A2D869518
:1050100086958370982F823089F08330A1F080913B
:10502000F408913041F0242B82230E949F07C1CFC6
:105030008230A8F6BECF842B822BF7CF242B809111
:10504000F4088227F2CF822F842BEFCF8A2D8F7026
:10505000082FB11431F00E94A207812F0E94A218DC
:10506000A8CF812F0E94AB18802F0E94AB07A1CF41
:1050700070F4103FC9F0113F91F0B11409F451C020
:10508000D11409F44BC0812F0E94CD1792CF133F4A
:10509000F9F0143F91F79091F70892FD26C08A2D00
:1050A0008F71B11411F396CE8D2DB11479F0853036
:1050B00008F07FCF8A2D8F71282F81E001C0880FE3
:1050C0002A95EAF79091F4088927AFCF8630F0CF80
:1050D00080E0B11409F4A9CF8A2D8F71982F81E057
:1050E00001C0880F9A95EAF7A0CFB11461F08A2D1C
:1050F0008F7192FF6FCE982F990F990F990F936030
:105100009093F50867CE81E00E9482088D2D823051
:1051100008F44FCF82E00E9482084BCF8A2D8F7116
:1051200059CED11479F0193349F48FEF97EE23E07B
:10513000815090402040E1F700C00000812F0E9484
:10514000491837CF8A2D8F7190CF06319CE7190708
:1051500009F0E7CC8091EF08811509F4E0CC85E3F4
:105160000E94AF1114C09091F00806312CE712078D
:1051700009F0E5CC9A7A81E0911101C080E080933A
:10518000EF0885E3911101C089E20E9495110E9408
:10519000B2146ECBF801E851FC47E730F10508F492
:1051A000E4CB1092EE089801305723323105D8F63F
:1051B00084E090E00E944D368093F6089093F708C3
:1051C000F801E150F047E232F10508F0EECBEF5381
:1051D000F94C0C94E03580913909803170F480915C
:1051E0003809811551F0E091FA082091F9083091C1
:1051F0003409409133092E1301C00895BF0187E09F
:10520000E89FF0011124DF01A550B74F14968C914F
:105210001497811551F111968C911197831325C024
:105220008C91841322C015968C91159781111DC005
:1052300012968D919D91A0913509B09136098A1BE6
:105240009B0B883C910588F4809139098F708061AF
:1052500080933909EF5FF64F80818F708061808382
:1052600083E399E083DA0C9478086F5F7F4FFB014A
:10527000E770C1CFADE0B0E0E0E4F9E20C94733543
:105280008C0186E0F801DE01189601900D928A9556
:10529000E1F7F801F580848193E3892E99E0992E56
:1052A00070903709711017C0811591F0F11409F44D
:1052B0000EC1C8010E94B71B811509F408C187E01F
:1052C000F801A3E3B9E001900D928A95E1F783DF3D
:1052D000FF24F39455C0D080A280B380C0903809D9
:1052E0002091350930913609A501421B530BC11499
:1052F00009F4BDC0483C510508F076C0811541F362
:10530000809134099180E09039099E2D903108F008
:1053100057C0981214C0809133098D1110C0F1103C
:1053200049C08E2D8F7080618093390983E399E0A5
:105330001DDA80913909F8018683F12C21C0F11022
:1053400039C040E0692D8D2D0E94590840E0692D3B
:105350008D2D0E945908F82E8111EFCF88859985EF
:105360000E94AC1B292F22952F70903470F49F70EF
:10537000223098F09115A9F0F8019681903188F4C7
:105380008F2D2D96EDE00C948F352A5F2F702230F3
:1053900060F0C801EBD9FC2CF3CF911511F0811509
:1053A00079F3805E883060F3F4CF803F48F3815F0B
:1053B0008330F9CF80913909816080933909BDCF5D
:1053C000981237C0809133098D1133C0F11031C06C
:1053D000E682C801CBD987E0F801A3E3B9E00190E8
:1053E0000D928A95E1F774CFE09039099E2D9031A6
:1053F00048F483E399E0BAD9F40187E011928A95E1
:10540000E9F79BCF811509F463CF9091340981812D
:1054100098130FC0809133098D110BC0F11009C092
:10542000E682C801A3D9F40187E011928A95E9F7D1
:105430004FCFC8010E94B71B811509F448C0F11471
:1054400009F445C08E2D803208F439CF809133099C
:105450009091340989839A83AB82BC827D821E82BB
:10546000809139098F83CE01019680D928CF483C9D
:10547000510508F0C1CF811509F42ACFF11439F193
:10548000909134098181981318C0809133098D114E
:1054900014C08091390980FD9ECF803108F49BCFE4
:1054A0008683807F803F09F494CF8681982F907FF8
:1054B000905F8F70892B86838CCFC8010E94B71BA9
:1054C0008111FDCE80913909816080933909C8012D
:1054D0004DD9FECEABE1B0E0E0E7FAE20C947C35CA
:1054E0004E8B5F8B688F798F8A8F192F9B8F9111CD
:1054F0001092F8081D8A86E0FE017696DE011F965E
:1055000001900D928A95E1F70A8D011561F00B8BE0
:105510001C8B61E0CE010F960E948F1B61E0CE01D3
:105520000F960E948F1B0B8B1C8B87E0FE013F9612
:10553000DE01189601900D928A95E1F7CE0108964A
:1055400099DE81112EC02091F9083091FA0887E088
:10555000AE01485F5F4FFA0147505109DA010190EF
:105560000D928A95E1F78C858115D9F0822F90E014
:105570008395877090E0AC0134171506E1F097E051
:10558000929FD0011124A550B74F9E012F5F3F4F2E
:10559000F90101900D929A95E1F74093F9080E9464
:1055A00078088091FA089091F908891311C06B96D8
:1055B000E4E00C9498350E94F0141092F9081092CF
:1055C000FA08E3E3F9E087E011928A95E9F7E9CF79
:1055D00027E0829FC00111248550974F4BDE811533
:1055E00031F38091FA089091FB08019687708093BF
:1055F000FA08D7CFA6E0B0E0E0E0FBE20C947C35FF
:105600000E94C61F8C018091CD089091CE08801712
:10561000910771F019821A820E94C61FBC0149814C
:105620005A8180E090E056DF0093CD081093CE08B9
:105630002696E4E00C949835ACE0B0E0E2E2FBE2C0
:105640000C94793580E00DEF1CEF90919C0820912F
:105650009B08291709F43FC0E92FF0E0E356F74F04
:10566000D080ED2CE894E7F89F5F937090939C08AE
:1056700080919A088F5F80939A08D7FC07C0EF82C9
:1056800018870E94C61F23E0F22E06C0EF8208870B
:105690000E94C61F32E0F32EBC0189879A87FB86E1
:1056A00081E08C874F8158858F2D91E013DFE9824F
:1056B000D7FE0FC00A830E94C61FBC018B839C8348
:1056C000FD821E8249815A818F2D90E003DF81E0A7
:1056D000BCCF1A83F0CF2C96E7E00C949535CDB76C
:1056E000DEB7A4970FB6F894DEBF0FBECDBF85B767
:1056F000806885BF85B7806885BF84B7877F84BF92
:105700000FB6F894A895809160008861809360003E
:10571000109260000FBE80E890E00FB6F89480937E
:105720006100909361000FBE81E0809314018EE7C9
:105730009AE08093E4029093E5020E9421130E9474
:10574000D2128091E20084608093E200789480918C
:105750004A08811599F08091E9001091EC008F7052
:1057600010FB112717F9182B1092E9008091E8001F
:1057700083FD0E9416151F701093E90082E084BD1E
:1057800093E095BD9AEF97BD80936E001092C90883
:105790001092CA081092CB081092CC080E940D1CDF
:1057A000811102C00E94821E8091D8008061809386
:1057B000D8008AE18A95F1F700C08091D900182FAE
:1057C000117080FD04C00E94211310924A081093AA
:1057D000C70881E081278093C808809317011111C1
:1057E0000E940B34E9E9F8E088E011928A95E9F724
:1057F0008091170191E089278093450880911701D6
:10580000909348088091170180911701811106C07B
:1058100084EF8093160185EF8093150160E080E0AE
:105820000E94CD1061E080E00E94CD108FE891E0F1
:105830000197F1F700C0000010E0809148081817A8
:1058400008F496C0809117018091170191E0892793
:10585000880F880F8093BE0894E0981B9093B2083D
:105860001EE6E12E12E0F12E02E712E0F70181912F
:105870007F018F3F11F00E94800A0E151F05B1F7BE
:1058800002E712E0F80181918F018F3F11F00E9431
:10589000800A82E008371807A9F7E6EBF8E088E00D
:1058A00011928A95E9F7EFEBF8E088E011928A957A
:1058B000E9F780E090E00E944D36833E9E4F21F450
:1058C0000E940D1C81112DC063EE7EEF80E090E000
:1058D0000E947B3660E082E090E00E94613681E0C9
:1058E0008093F30861E083E090E00E94613660E01D
:1058F00074E184E090E00E947B360E942F1C0E949D
:10590000821E60E070E0AB018FE090E00E94733691
:1059100060E070E0AB0183E190E00E9473360E948A
:10592000241C82E090E00E94453680933A0884E08F
:1059300090E00E944D368093F6089093F7080E94FD
:10594000DB1F8FEF96E721E0815090402040E1F788
:1059500000C000000E94DB1F8091BD0885FF1AC0B7
:105960006FEF7FEF80E090E00E947B360E94E511B0
:1059700060E0812F0E94ED10082F61E0812F0E94CE
:10598000ED10E12FF0E0EA5BF74F880F802B80836A
:105990001F5F53CF83E090E00E9445360E949C0732
:1059A0000E940A111092DA0340E150E06FEF70E0BC
:1059B00083EF93E00E942E361092110840E150E0F0
:1059C0006FEF70E08AE298E00E942E3681E08093CB
:1059D000D90348E050E067E170E086EA98E00E9471
:1059E00035361092D9038091A608843010F40E94B5
:1059F0002F1C82E080930E0880E880930D087ED5EE
:105A00006BE070E081E49EE00E94A81E8115E9F140
:105A100080910E0865E070E081FD10C18CE39EE08E
:105A20000E94A81E811589F16DE070E08AE29EE077
:105A30000E94A81E811549F10E94BE11DC01CB0114
:105A4000805A9541AF4FBF4F8093090890930A0841
:105A5000A0930B08B0930C08E7E0F4E0DF0180E0CE
:105A600094E01D920197E9F7E0930504F093060492
:105A70008FEF9FEF809303049093040481E0809361
:105A8000080880934B08109207088091C70881117D
:105A900001C0C4D688E191E08093CF089093D008EC
:105AA00080914A0810E4853009F403C10E94DB1F8D
:105AB0008BE398E089A39AA386EB98E08BA39CA341
:105AC00023E438E0FC01ABE3B8E09D9180812A1724
:105AD0003B0709F4F8C031969817B9F34090C7080E
